:100000000C942A000C9447000C9447000C94470071
:100010000C9447000C9447000C9447000C94470044
:100020000C9447000C9447000C9447000C947B06FA
:100030000C9447000C9447000C9447000C94470024
:100040000C9447000C9447000C9447000C94470014
:100050000C94470011241FBECFE5D8E0DEBFCDBF12
:1000600010E0A0E6B0E0ECEEFDE202C005900D92DB
:10007000A03BB107D9F710E0A0EBB0E001C01D92A2
:10008000AF3BB107E1F70E94A2140C94F4160C9454
:100090000000EF92FF920F931F937B018C0120E0F1
:1000A00030E040E05FE40E94490388238CF0C801FF
:1000B000B70120E030E040E05FE40E94C1010E940F
:1000C000A9039B01AC01205030404040504806C07D
:1000D000C801B7010E94A9039B01AC01B901CA0183
:1000E0001F910F91FF90EF900895A0E0B0E0EBE733
:1000F000F0E00C94BD16DC012B01FA019C919230CA
:1001000008F439C1EB018881823008F433C194309E
:1001100069F4843009F02FC111969C91119789815F
:10012000981709F428C1A4E9B0E025C1843009F486
:1001300021C18230A9F4923009F01DC19A01AD01AC
:1001400088E0EA010990AE01E90109929E0181501F
:10015000C1F7E201898111969C918923818308C1AD
:10016000923009F407C112962D903C901397EB0141
:100170008A819B811496AD90BD90CD90DC901797AD
:10018000EC80FD800E811F819101281B390BB90184
:1001900037FF04C066277727621B730B6032710537
:1001A0000CF061C0121613066CF537014801062EDB
:1001B00004C096948794779467940A94D2F721E0C8
:1001C00030E040E050E004C0220F331F441F551FB1
:1001D0006A95D2F721503040404050402E213F21B7
:1001E00040235123211531054105510521F021E01E
:1001F00030E040E050E079018A01E628F72808293C
:1002000019293CC0232BD1F1260E371E350146019A
:10021000062E04C096948794779467940A94D2F734
:1002200021E030E040E050E004C0220F331F441FC3
:10023000551F6A95D2F721503040404050402A2146
:100240003B214C215D21211531054105510521F04E
:1002500021E030E040E050E059016A01A628B728CB
:10026000C828D9280BC0821593052CF01C01AA249C
:10027000BB24650103C0EE24FF24870111969C91E5
:10028000D20111968C91981709F445C0992339F041
:10029000A80197012A193B094C095D0906C0A6016E
:1002A00095012E193F09400B510B57FD08C01182D3
:1002B0003382228224833583468357831DC081E0A5
:1002C00081833382228288279927DC01821B930B4A
:1002D000A40BB50B84839583A683B7830DC0220F2F
:1002E000331F441F551F24833583468357838281E0
:1002F000938101979383828324813581468157813D
:10030000DA01C9010197A109B1098F5F9F4FAF4F72
:10031000BF4328F30BC0918333822282EA0CFB1C7B
:100320000C1D1D1DE482F5820683178383E0808304
:10033000248135814681578157FF1AC0C901AA27F8
:1003400097FDA095BA2F81709070A070B0705695EF
:10035000479537952795822B932BA42BB52B848318
:100360009583A683B7838281938101969383828349
:10037000DF0101C0D201CD01CDB7DEB7E2E10C94BF
:10038000D916A0E2B0E0E7ECF1E00C94C91669835D
:100390007A838B839C832D833E834F835887E9E048
:1003A000EE2EF12CEC0EFD1ECE010196B7010E943F
:1003B000D2048E010F5E1F4FCE010596B8010E9438
:1003C000D2048A8991E089278A8BC701B801AE01DE
:1003D000475E5F4F0E9475000E94FD03A096E6E015
:1003E0000C94E516A0E2B0E0E8EFF1E00C94C91639
:1003F00069837A838B839C832D833E834F835887C5
:10040000F9E0EF2EF12CEC0EFD1ECE010196B701A6
:100410000E94D2048E010F5E1F4FCE010596B801D7
:100420000E94D204C701B801AE01475E5F4F0E942F
:1004300075000E94FD03A096E6E00C94E516A0E28C
:10044000B0E0E5E2F2E00C94BD1669837A838B8319
:100450009C832D833E834F835887CE010196BE0136
:10046000675F7F4F0E94D204CE010596BE016F5E8A
:100470007F4F0E94D2049985923088F0898982301A
:10048000C8F0943019F4823051F404C0843029F457
:10049000923081F484E990E0C6C0923049F420E0C3
:1004A0009A858A89981321E02A87CE010996BBC0D4
:1004B000823049F420E09A858A89981321E02A8BBA
:1004C000CE014196B0C02D843E844F8458886D88FB
:1004D0007E888F88988CEE24FF248701AA24BB2471
:1004E000650140E050E060E070E0E0E0F0E0C10174
:1004F00081709070892BE9F0E60CF71C081D191D1E
:100500009A01AB012A0D3B1D4C1D5D1D80E090E062
:10051000A0E0B0E0E614F7040805190520F481E036
:1005200090E0A0E0B0E0BA01A901480F591F6A1F8E
:100530007B1FAA0CBB1CCC1CDD1C97FE08C081E0F5
:1005400090E0A0E0B0E0A82AB92ACA2ADB2A3196B6
:10055000E032F10549F0660C771C881C991C569412
:10056000479437942794C3CFFA85EA892B893C892D
:100570008B859C85280F391F2E5F3F4F17C0CA01FE
:1005800081709070892B61F016950795F794E79428
:1005900080E090E0A0E0B0E8E82AF92A0A2B1B2BC3
:1005A00076956795579547952F5F3F4F77FDE7CF36
:1005B0000CC0440F551F661F771F17FD4160EE0CDE
:1005C000FF1C001F111F21503040403090E05907A0
:1005D00090E0690790E4790760F32B8F3C8FDB0193
:1005E000CA018F779070A070B07080349105A1051A
:1005F000B10561F447FD0AC0E114F10401051105DC
:1006000029F0405C5F4F6F4F7F4F40781A8EFE1786
:1006100011F081E08A8F4D8F5E8F6F8F78A383E01A
:10062000898FCE0149960E94FD03A096E2E10C94C9
:10063000D916A8E1B0E0EFE1F3E00C94C9166983A4
:100640007A838B839C832D833E834F83588789E0F5
:10065000E82EF12CEC0EFD1ECE010196B7010E9492
:10066000D2048E010F5E1F4FCE010596B8010E9485
:10067000D2048985823040F08989823028F0C70110
:10068000B8010E944A0501C08FEF6896E6E00C941D
:10069000E516A8E1B0E0EFE4F3E00C94C916698335
:1006A0007A838B839C832D833E834F83588789E095
:1006B000E82EF12CEC0EFD1ECE010196B7010E9432
:1006C000D2048E010F5E1F4FCE010596B8010E9425
:1006D000D2048985823040F08989823028F0C701B0
:1006E000B8010E944A0501C08FEF6896E6E00C94BD
:1006F000E516A8E1B0E0EFE7F3E00C94C9166983D2
:100700007A838B839C832D833E834F83588789E034
:10071000E82EF12CEC0EFD1ECE010196B7010E94D1
:10072000D2048E010F5E1F4FCE010596B8010E94C4
:10073000D2048985823040F08989823028F0C7014F
:10074000B8010E944A0501C081E06896E6E00C9479
:10075000E516ACE0B0E0EFEAF3E00C94CD16698367
:100760007A838B839C83CE010196BE016B5F7F4FA2
:100770000E94D2048D81823061F1823050F1843048
:1007800021F48E81882351F12EC02F81388537FDC9
:1007900020C06E812F3131051CF06623F9F023C093
:1007A0008EE190E0821B930B29853A854B855C8511
:1007B00004C056954795379527958A95D2F76623B5
:1007C000B1F050954095309521953F4F4F4F5F4F79
:1007D0000EC020E030E040E050E009C02FEF3FEFD6
:1007E0004FEF5FE704C020E030E040E050E8B9019F
:1007F000CA012C96E2E00C94E916DF92EF92FF9288
:100800000F931F93FC01E480F58006811781D1804E
:100810008081823048F480E090E0A0E1B0E0E82AF6
:10082000F92A0A2B1B2BA5C0843009F49FC0823003
:1008300021F4EE24FF24870105C0E114F104010531
:10084000110519F4E0E0F0E096C0628173819FEF3A
:10085000623879070CF05BC022E83FEF261B370BAC
:100860002A3131052CF020E030E040E050E02AC091
:10087000B801A701022E04C0769567955795479554
:100880000A94D2F781E090E0A0E0B0E004C0880FC5
:10089000991FAA1FBB1F2A95D2F70197A109B10979
:1008A0008E219F21A023B1230097A105B10521F03E
:1008B00081E090E0A0E0B0E09A01AB01282B392B59
:1008C0004A2B5B2BDA01C9018F779070A070B07052
:1008D00080349105A105B10539F427FF09C0205CDA
:1008E0003F4F4F4F5F4F04C0215C3F4F4F4F5F4F13
:1008F000E0E0F0E02030A0E03A07A0E04A07A0E402
:100900005A0710F0E1E0F0E079018A0127C0603871
:10091000710564F5FB01E158FF4FD801C7018F77DE
:100920009070A070B07080349105A105B10539F4C4
:10093000E7FE0DC080E490E0A0E0B0E004C08FE3EB
:1009400090E0A0E0B0E0E80EF91E0A1F1B1F17FFA1
:1009500005C016950795F794E794319687E01695AC
:100960000795F794E7948A95D1F705C0EE24FF2404
:100970008701EFEFF0E06E2F679566276795902F60
:100980009F77D794DD24D7948E2F8695492F462BB9
:10099000582F5D29B701CA011F910F91FF90EF9069
:1009A000DF900895FC01DB01408151812281622F9B
:1009B0006F7770E0221F2227221F9381892F880FD3
:1009C000822B282F30E0991F9927991F11969C930D
:1009D000119721153105A9F54115510561057105DD
:1009E00011F482E037C082E89FEF13969C938E93B8
:1009F00012979A01AB0167E0220F331F441F551F66
:100A00006A95D1F783E08C930DC0220F331F441FEA
:100A1000551F12968D919C911397019713969C9355
:100A20008E931297203080E0380780E0480780E4FA
:100A3000580758F314962D933D934D935C93179755
:100A400008952F3F310579F4411551056105710570
:100A500019F484E08C93089564FF03C081E08C93C3
:100A600012C01C9210C02F57304013963C932E9307
:100A7000129783E08C9387E0440F551F661F771F02
:100A80008A95D1F7706414964D935D936D937C9322
:100A9000179708951F93DC01FB019C91923008F495
:100AA00047C08081823008F443C0943051F41196DD
:100AB0001C91843099F58181682F70E0611B710968
:100AC0003FC0843021F0923031F48230B9F181811D
:100AD000882389F12DC011961C9111978230F1F075
:100AE00081811817D9F412962D913C911397828128
:100AF00093818217930794F028173907BCF0149656
:100B00008D919D910D90BC91A02D248135814681C0
:100B10005781281739074A075B0718F4112341F05A
:100B20000AC082179307A407B50740F4112319F0F0
:100B300061E070E005C06FEF7FEF02C060E070E041
:100B4000CB011F910895DF93CF93CDB7DEB7A3E517
:100B5000B0E0E3E5F0E08081877F8C93A3E5B0E02F
:100B6000E3E5F0E080818F7B8C93A9E5B0E0E9E5D7
:100B7000F0E0808181608C93AFE5B0E0EFE5F0E0DC
:100B8000808180688C93CF91DF910895DF93CF931C
:100B9000CDB7DEB72C970FB6F894DEBF0FBECDBF32
:100BA00069877A878B879C8780E490E0A0E0B0E03B
:100BB0008D839E83AF83B88789859A85AB85BC85F5
:100BC00028EE33E040E050E0BC01CD010E942E163B
:100BD000DC01CB012D813E814F815885BC01CD01C7
:100BE0000E948016DA01C90189839A83AB83BC8392
:100BF00089819A81AB81BC81892F9A2FAB2FBB272A
:100C00008093B0009093B100A093B200B093B30072
:100C100089818093B4008091B4008823C9F0E2E513
:100C2000F0E08091B400819580838091B000909134
:100C3000B100A091B200B091B3000196A11DB11D09
:100C40008093B0009093B100A093B200B093B30032
:100C50002C960FB6F894DEBF0FBECDBFCF91DF91BB
:100C60000895DF93CF93CDB7DEB7A3E5B0E0E3E51A
:100C7000F0E0808181608C93A3E5B0E0E3E5F0E0F3
:100C800080818D7F8C93A3E5B0E0E3E5F0E0808187
:100C900084608C93CF91DF910895DF93CF93CDB78C
:100CA000DEB7A3E5B0E0E3E5F0E080818E7F8C93D2
:100CB000A3E5B0E0E3E5F0E080818D7F8C93A3E5D0
:100CC000B0E0E3E5F0E080818B7F8C93CF91DF9102
:100CD0000895DF93CF9300D0CDB7DEB79A83898391
:100CE00089819A819093BE008093BD000F900F90F0
:100CF000CF91DF9108951F920F920FB60F9211249A
:100D00002F933F934F935F936F937F938F939F9313
:100D1000AF93BF93EF93FF93DF93CF93CDB7DEB73E
:100D20008091B9009091BA00A091BB00B091BC0035
:100D30000196A11DB11D8093B9009093BA00A093B4
:100D4000BB00B093BC002091B9003091BA00409133
:100D5000BB005091BC008091B0009091B100A09177
:100D6000B200B091B300281739074A075B0799F41E
:100D7000E091BD00F091BE0009951092B90010926B
:100D8000BA001092BB001092BC00E2E5F0E0809146
:100D9000B40081958083CF91DF91FF91EF91BF9156
:100DA000AF919F918F917F916F915F914F913F9103
:100DB0002F910F900FBE0F901F901895DF93CF9338
:100DC000CDB7DEB72A970FB6F894DEBF0FBECDBF02
:100DD0008B836C838B819AE0692F0E944D168A83E6
:100DE0008B819AE0692F0E944D16892F89838C810F
:100DF000282F30E03A87298789859A8581309105A7
:100E000039F029853A852230310509F471C0E4C0F2
:100E10008A81282F30E038872F838F819885823010
:100E2000910551F12F8138852330310534F48F81BC
:100E300098858130910561F0CFC02F8138852330AE
:100E4000310571F18F81988584309105E9F1C4C035
:100E5000AAE3B0E0EAE3F0E08081482F8981282FFF
:100E600030E081E090E0022E02C0880F991F0A94C2
:100E7000E2F7842B8C93B0C0A7E3B0E0E7E3F0E0A7
:100E80008081482F8981282F30E081E090E0022E78
:100E900002C0880F991F0A94E2F7842B8C939CC0A0
:100EA000A4E3B0E0E4E3F0E08081482F8981282FBB
:100EB00030E081E090E0022E02C0880F991F0A9472
:100EC000E2F7842B8C9388C0A1E3B0E0E1E3F0E08B
:100ED0008081482F8981282F30E081E090E0022E28
:100EE00002C0880F991F0A94E2F7842B8C9374C078
:100EF0008A81282F30E03E832D838D819E81823030
:100F0000910561F12D813E812330310534F48D81CD
:100F10009E818130910569F05FC02D813E81233033
:100F2000310589F18D819E818430910509F440C09D
:100F300053C0AAE3B0E0EAE3F0E08081482F898162
:100F4000282F30E081E090E0022E02C0880F991F28
:100F50000A94E2F7809584238C933EC0A7E3B0E027
:100F6000E7E3F0E08081482F8981282F30E081E09D
:100F700090E0022E02C0880F991F0A94E2F7809534
:100F800084238C9329C0A4E3B0E0E4E3F0E0808103
:100F9000482F8981282F30E081E090E0022E02C0A6
:100FA000880F991F0A94E2F7809584238C9314C0CC
:100FB000A1E3B0E0E1E3F0E08081482F8981282FB0
:100FC00030E081E090E0022E02C0880F991F0A9461
:100FD000E2F7809584238C932A960FB6F894DEBFAF
:100FE0000FBECDBFCF91DF910895DF93CF9300D097
:100FF00000D00F92CDB7DEB78A836B8319828B81C5
:10100000813019F48FEF898301C019828A81282FDA
:1010100030E03D832C838C819D8182309105D9F015
:101020002C813D812330310534F48C819D818130C8
:10103000910561F01EC02C813D812330310581F086
:101040008C819D818430910581F013C0EAE3F0E04A
:10105000898180830EC0E7E3F0E08981808309C045
:10106000E4E3F0E08981808304C0E1E3F0E089817A
:1010700080830F900F900F900F900F90CF91DF9182
:101080000895DF93CF93CDB7DEB72A970FB6F894C4
:10109000DEBF0FBECDBF8B836C838B819AE0692F3F
:1010A0000E944D16892F8A838B819AE0692F0E94B6
:1010B0004D1689838C81282F30E03A8729878985CE
:1010C0009A85009709F476C029853A852130310543
:1010D00009F0E4C08981282F30E038872F838F8181
:1010E00098858230910551F12F8138852330310563
:1010F00034F48F8198858130910561F0CFC02F81C4
:1011000038852330310571F18F81988584309105C0
:10111000E9F1C4C0ABE3B0E0EBE3F0E08081482F3D
:101120008A81282F30E081E090E0022E02C0880FF3
:10113000991F0A94E2F7842B8C93B0C0A8E3B0E027
:10114000E8E3F0E08081482F8A81282F30E081E0B9
:1011500090E0022E02C0880F991F0A94E2F7842BB8
:101160008C939CC0A5E3B0E0E5E3F0E08081482FDC
:101170008A81282F30E081E090E0022E02C0880FA3
:10118000991F0A94E2F7842B8C9388C0A2E3B0E005
:10119000E2E3F0E08081482F8A81282F30E081E06F
:1011A00090E0022E02C0880F991F0A94E2F7842B68
:1011B0008C9374C08981282F30E03E832D838D81EC
:1011C0009E818230910561F12D813E812330310570
:1011D00034F48D819E818130910569F05FC02D814D
:1011E0003E812330310589F18D819E8184309105C6
:1011F00009F440C053C0ABE3B0E0EBE3F0E0808122
:10120000482F8A81282F30E081E090E0022E02C032
:10121000880F991F0A94E2F7809584238C933EC02F
:10122000A8E3B0E0E8E3F0E08081482F8A81282F2E
:1012300030E081E090E0022E02C0880F991F0A94EE
:10124000E2F7809584238C9329C0A5E3B0E0E5E321
:10125000F0E08081482F8A81282F30E081E090E003
:10126000022E02C0880F991F0A94E2F7809584230A
:101270008C9314C0A2E3B0E0E2E3F0E08081482F59
:101280008A81282F30E081E090E0022E02C0880F92
:10129000991F0A94E2F7809584238C932A960FB6BF
:1012A000F894DEBF0FBECDBFCF91DF910895DF93DD
:1012B000CF9300D000D0CDB7DEB789836A83898110
:1012C000282F30E03C832B838B819C8182309105D9
:1012D000D9F02B813C812330310534F48B819C8102
:1012E0008130910561F01EC02B813C812330310596
:1012F00081F08B819C818430910581F013C0EBE3F8
:10130000F0E08A8180830EC0E8E3F0E08A81808388
:1013100009C0E5E3F0E08A81808304C0E2E3F0E005
:101320008A8180830F900F900F900F90CF91DF9163
:101330000895DF93CF9300D000D0CDB7DEB78A8376
:1013400019828A81282F30E03C832B838B819C81FA
:1013500082309105D9F02B813C812330310534F462
:101360008B819C818130910561F01EC02B813C8175
:101370002330310581F08B819C818430910581F08F
:1013800013C0EBE3F0E0808189830EC0E8E3F0E076
:101390008081898309C0E5E3F0E08081898304C00E
:1013A000E2E3F0E08081898389810F900F900F90B4
:1013B0000F90CF91DF910895DF93CF9300D000D0AD
:1013C00000D0CDB7DEB78C838C819AE0692F0E9464
:1013D0004D16892F8B838C819AE0692F0E944D16C0
:1013E0008A8319828A81282F30E03E832D834D81A4
:1013F0005E814230510541F18D819E81833091059E
:1014000034F42D813E812130310561F052C04D818F
:101410005E814330510551F18D819E81843091056B
:10142000B9F147C0E9E3F0E08081282F30E08B81FB
:10143000882F90E0A90102C0559547958A95E2F75B
:10144000CA018170898335C0E6E3F0E08081282FEE
:1014500030E08B81882F90E0A90102C05595479517
:101460008A95E2F7CA018170898323C0E3E3F0E043
:101470008081282F30E08B81882F90E0A90102C065
:10148000559547958A95E2F7CA018170898311C005
:10149000E0E3F0E08081282F30E08B81882F90E01E
:1014A000A90102C0559547958A95E2F7CA01817056
:1014B0008983898126960FB6F894DEBF0FBECDBF13
:1014C000CF91DF910895DF93CF9300D000D00F929A
:1014D000CDB7DEB78B838B819AE0692F0E944D16C2
:1014E000892F8A838B819AE0692F0E944D16898308
:1014F0008B8162E00E94DE068981282F30E03D83E7
:101500002C838C819D818230910551F12C813D810C
:101510002330310534F48C819D818130910561F057
:101520005AC02C813D812330310571F18C819D8120
:1015300084309105E9F14FC0ABE3B0E0EBE3F0E0BC
:101540008081482F8A81282F30E081E090E0022EB0
:1015500002C0880F991F0A94E2F7842B8C933BC03A
:10156000A8E3B0E0E8E3F0E08081482F8A81282FEB
:1015700030E081E090E0022E02C0880F991F0A94AB
:10158000E2F7842B8C9327C0A5E3B0E0E5E3F0E01D
:101590008081482F8A81282F30E081E090E0022E60
:1015A00002C0880F991F0A94E2F7842B8C9313C012
:1015B000A2E3B0E0E2E3F0E08081482F8A81282FA7
:1015C00030E081E090E0022E02C0880F991F0A945B
:1015D000E2F7842B8C930F900F900F900F900F9049
:1015E000CF91DF910895DF93CF93CDB7DEB78DE034
:1015F00061E00E94DE068CE061E00E94DE0689E187
:1016000061E00E94DE068AE161E00E94DE0684E17C
:1016100061E00E94DE0685E161E00E94DE0686E16F
:1016200061E00E94DE0688E161E00E94DE06CF9163
:10163000DF910895DF93CF93CDB7DEB727970FB62D
:10164000F894DEBF0FBECDBF9F838E831D828E8137
:101650009F8128EE33E0B9010E945916CB018C839B
:101660008E819F8128EE33E0B9010E9459169F8335
:101670008E838E819F8124E630E0B9010E94591645
:10168000CB018B838E819F8124E630E0B9010E94DB
:1016900059169F838E838E819F812AE030E0B901A5
:1016A0000E9459168A838E819F812AE030E0B90119
:1016B0000E945916CB0189831D8213C08A8161E083
:1016C0000E947D0B898162E00E947D0B8B8163E02B
:1016D0000E947D0B8C8164E00E947D0B8D818F5F69
:1016E0008D838D81823350F327960FB6F894DEBF39
:1016F0000FBECDBFCF91DF910895DF93CF93CDB7CC
:10170000DEB764970FB6F894DEBF0FBECDBF8F87EC
:10171000688B8889282F30E03C8B2B8B8B899C89A8
:101720008230910539F12B893C892330310534F41D
:101730008B899C898130910561F04EC02B893C8951
:101740002330310541F18B899C8984309105A1F1C9
:1017500043C08DE060E00E9441088CE061E00E949F
:10176000410889E161E00E9441088AE161E00E944C
:10177000410832C08DE061E00E9441088CE060E0E9
:101780000E94410889E161E00E9441088AE161E02C
:101790000E94410821C08DE061E00E9441088CE078
:1017A00061E00E94410889E160E00E9441088AE10D
:1017B00061E00E94410810C08DE061E00E94410894
:1017C0008CE061E00E94410889E161E00E944108EB
:1017D0008AE160E00E9441088F85282F30E03A8B33
:1017E000298B89899A898430910509F48BC02989CC
:1017F0003A8925303105ECF489899A89813091053F
:1018000009F44DC029893A89223031052CF489899F
:101810009A89009799F1DBC029893A8922303105EC
:1018200009F44EC089899A898330910509F459C019
:10183000CEC029893A892730310509F496C08989B3
:101840009A89883091056CF429893A8925303105C7
:1018500009F469C089899A898630910509F474C0B0
:10186000B6C029893A892830310509F48FC08989A1
:101870009A898930910509F49AC0A9C084E160E091
:101880000E94410885E160E00E94410886E160E035
:101890000E94410888E160E00E94410898C084E10C
:1018A00061E00E94410885E160E00E94410886E114
:1018B00060E00E94410888E160E00E94410887C022
:1018C00084E160E00E94410885E161E00E944108F6
:1018D00086E160E00E94410888E160E00E944108E2
:1018E00076C084E161E00E94410885E161E00E94E8
:1018F000410886E160E00E94410888E160E00E94C2
:10190000410865C084E160E00E94410885E160E033
:101910000E94410886E161E00E94410888E160E0A0
:101920000E94410854C084E161E00E94410885E1C1
:1019300060E00E94410886E161E00E94410888E180
:1019400060E00E94410843C084E160E00E944108D9
:1019500085E161E00E94410886E161E00E94410862
:1019600088E160E00E94410832C084E161E00E94A9
:10197000410885E161E00E94410886E161E00E9442
:10198000410888E160E00E94410821C084E160E0F4
:101990000E94410885E160E00E94410886E160E024
:1019A0000E94410888E161E00E94410810C084E182
:1019B00061E00E94410885E160E00E94410886E103
:1019C00060E00E94410888E161E00E94410880E0F7
:1019D00090E0A0E0B0E48B879C87AD87BE876B85E5
:1019E0007C858D859E8520E030E04AE755E40E94A5
:1019F0001F02DC01CB018F839887A987BA876F818B
:101A0000788589859A8520E030E040E85FE30E9490
:101A1000790388232CF481E090E09E838D833FC07E
:101A20006F81788589859A8520E03FEF4FE757E4FD
:101A30000E94190318164CF56B857C858D859E8553
:101A400020E030E040E251E40E941F02DC01CB01C3
:101A5000BC01CD010E944900DC01CB019E838D8336
:101A60000FC080E991E09C838B838B819C810197DF
:101A7000F1F79C838B838D819E8101979E838D835B
:101A80008D819E81009769F714C06F817885898563
:101A90009A850E944900DC01CB019E838D838D8154
:101AA0009E819A83898389819A810197F1F79A832C
:101AB000898364960FB6F894DEBF0FBECDBFCF9179
:101AC000DF910895DF93CF9300D000D0CDB7DEB77C
:101AD0009C838B831A8219821A82198209C0898198
:101AE0009A810E941A0B89819A8101969A8389832F
:101AF00029813A818B819C818217930780F70F900F
:101B00000F900F900F90CF91DF910895DF93CF93B7
:101B100000D00F92CDB7DEB79B838A83198209C0AC
:101B20008A819B810E941A0B8A819B8101979B83EA
:101B30008A838981282F30E08A819B812817390781
:101B400078F30F900F900F90CF91DF910895DF936E
:101B5000CF93CDB7DEB7E9970FB6F894DEBF0FBECF
:101B6000CDBF89AF8DE060E00E944108A8E3B0E0FE
:101B700089AD82958F70885F982F9771E8E3F0E0C8
:101B80008081887E892B8C938CE061E00E944108E3
:101B900080E090E0A0E8BFE38DAB9EABAFABB8AF09
:101BA0006DA97EA98FA998AD20E030E04AE755E401
:101BB0000E941F02DC01CB0189AB9AABABABBCAB83
:101BC00069A97AA98BA99CA920E030E040E85FE3ED
:101BD0000E94790388232CF481E090E098AB8FA7D2
:101BE0003FC069A97AA98BA99CA920E03FEF4FE7E4
:101BF00057E40E94190318164CF56DA97EA98FA908
:101C000098AD20E030E040E251E40E941F02DC0188
:101C1000CB01BC01CD010E944900DC01CB0198AB96
:101C20008FA70FC080E991E09EA78DA78DA59EA5E7
:101C30000197F1F79EA78DA78FA598A9019798AB5B
:101C40008FA78FA598A9009769F714C069A97AA9E9
:101C50008BA99CA90E944900DC01CB0198AB8FA7FE
:101C60008FA598A99CA78BA78BA59CA50197F1F799
:101C70009CA78BA78CE060E00E94410880E090E088
:101C8000A0E8BFE38FA398A7A9A7BAA76FA178A5DB
:101C900089A59AA520E030E04AE755E40E941F029A
:101CA000DC01CB018BA39CA3ADA3BEA36BA17CA144
:101CB0008DA19EA120E030E040E85FE30E9479031F
:101CC00088232CF481E090E09AA389A33FC06BA104
:101CD0007CA18DA19EA120E03FEF4FE757E40E9439
:101CE000190318164CF56FA178A589A59AA520E0CF
:101CF00030E040E251E40E941F02DC01CB01BC0154
:101D0000CD010E944900DC01CB019AA389A30FC039
:101D100080E991E098A38F8F8F8D98A10197F1F7BB
:101D200098A38F8F89A19AA101979AA389A389A1CA
:101D30009AA1009769F714C06BA17CA18DA19EA107
:101D40000E944900DC01CB019AA389A389A19AA131
:101D50009E8F8D8F8D8D9E8D0197F1F79E8F8D8F2C
:101D6000A8E3B0E089AD8F70885F982F9771E8E3A2
:101D7000F0E08081887E892B8C938CE061E00E946A
:101D8000410880E090E0A0E8BFE3898F9A8FAB8F95
:101D9000BC8F698D7A8D8B8D9C8D20E030E04AE779
:101DA00055E40E941F02DC01CB018D8B9E8BAF8B13
:101DB000B88F6D897E898F89988D20E030E040E86A
:101DC0005FE30E94790388232CF481E090E09C8BF0
:101DD0008B8B3FC06D897E898F89988D20E03FEF86
:101DE0004FE757E40E94190318164CF5698D7A8D58
:101DF0008B8D9C8D20E030E040E251E40E941F0278
:101E0000DC01CB01BC01CD010E944900DC01CB010A
:101E10009C8B8B8B0FC080E991E09A8B898B898991
:101E20009A890197F1F79A8B898B8B899C89019705
:101E30009C8B8B8B8B899C89009769F714C06D896B
:101E40007E898F89988D0E944900DC01CB019C8B93
:101E50008B8B8B899C89988B8F878F85988901972D
:101E6000F1F7988B8F878CE060E00E94410880E05A
:101E700090E0A0EAB0E48B879C87AD87BE876B8536
:101E80007C858D859E8520E030E04AE755E40E9400
:101E90001F02DC01CB018F839887A987BA876F81E6
:101EA000788589859A8520E030E040E85FE30E94EC
:101EB000790388232CF481E090E09E838D833FC0DA
:101EC0006F81788589859A8520E03FEF4FE757E459
:101ED0000E94190318164CF56B857C858D859E85AF
:101EE00020E030E040E251E40E941F02DC01CB011F
:101EF000BC01CD010E944900DC01CB019E838D8392
:101F00000FC080E991E09C838B838B819C8101973A
:101F1000F1F79C838B838D819E8101979E838D83B6
:101F20008D819E81009769F714C06F8178858985BE
:101F30009A850E944900DC01CB019E838D838D81AF
:101F40009E819A83898389819A810197F1F79A8387
:101F50008983E9960FB6F894DEBF0FBECDBFCF914F
:101F6000DF910895DF93CF93CDB7DEB72E970FB6ED
:101F7000F894DEBF0FBECDBF8DE061E00E94DE06AB
:101F80008CE061E00E94DE0684E161E00E94DE06F2
:101F900085E161E00E94DE0686E161E00E94DE06E6
:101FA00088E161E00E94DE0680E090E0AAE7B4E408
:101FB0008B879C87AD87BE876B857C858D859E854D
:101FC00020E030E04AE755E40E941F02DC01CB012B
:101FD0008F839887A987BA876F81788589859A8545
:101FE00020E030E040E85FE30E94790388232CF48E
:101FF00081E090E09E838D833FC06F8178858985E5
:102000009A8520E03FEF4FE757E40E941903181626
:102010004CF56B857C858D859E8520E030E040E227
:1020200051E40E941F02DC01CB01BC01CD010E94E2
:102030004900DC01CB019E838D830FC080E991E0D4
:102040009C838B838B819C810197F1F79C838B838D
:102050008D819E8101979E838D838D819E810097C6
:1020600069F714C06F81788589859A850E94490037
:10207000DC01CB019E838D838D819E819A83898330
:1020800089819A810197F1F79A83898383E30E947A
:10209000A70D82E30E94A70D88E20E94A70D8CE0A5
:1020A0000E94A70D81E00E94A70D82E00E94A70D6B
:1020B0002E960FB6F894DEBF0FBECDBFCF91DF9145
:1020C0000895DF93CF93CDB7DEB7E9970FB6F894B5
:1020D000DEBF0FBECDBF89AF8DE061E00E94410839
:1020E000A8E3B0E089AD82958F70885F982F9771D3
:1020F000E8E3F0E08081887E892B8C938CE061E0BE
:102100000E94410880E090E0A0E8BFE38DAB9EAB69
:10211000AFABB8AF6DA97EA98FA998AD20E030E034
:102120004AE755E40E941F02DC01CB0189AB9AAB60
:10213000ABABBCAB69A97AA98BA99CA920E030E024
:1021400040E85FE30E94790388232CF481E090E06B
:1021500098AB8FA73FC069A97AA98BA99CA920E059
:102160003FEF4FE757E40E94190318164CF56DA98D
:102170007EA98FA998AD20E030E040E251E40E94B2
:102180001F02DC01CB01BC01CD010E944900DC0132
:10219000CB0198AB8FA70FC080E991E09EA78DA7D8
:1021A0008DA59EA50197F1F79EA78DA78FA598A94C
:1021B000019798AB8FA78FA598A9009769F714C0CE
:1021C00069A97AA98BA99CA90E944900DC01CB01CD
:1021D00098AB8FA78FA598A99CA78BA78BA59CA52B
:1021E0000197F1F79CA78BA78CE060E00E94410863
:1021F00080E090E0A0E8BFE38FA398A7A9A7BAA7C3
:102200006FA178A589A59AA520E030E04AE755E4BA
:102210000E941F02DC01CB018BA39CA3ADA3BEA334
:102220006BA17CA18DA19EA120E030E040E85FE39E
:102230000E94790388232CF481E090E09AA389A37B
:102240003FC06BA17CA18DA19EA120E03FEF4FE795
:1022500057E40E94190318164CF56FA178A589A5BB
:102260009AA520E030E040E251E40E941F02DC0128
:10227000CB01BC01CD010E944900DC01CB019AA336
:1022800089A30FC080E991E098A38F8F8F8D98A1CB
:102290000197F1F798A38F8F89A19AA101979AA32B
:1022A00089A389A19AA1009769F714C06BA17CA1A9
:1022B0008DA19EA10E944900DC01CB019AA389A3B4
:1022C00089A19AA19E8F8D8F8D8D9E8D0197F1F79B
:1022D0009E8F8D8F8DE061E00E944108A8E3B0E001
:1022E00089AD8F70885F982F9771E8E3F0E0808167
:1022F000887E892B8C938CE061E00E94410880E00D
:1023000090E0A0E8BFE3898F9A8FAB8FBC8F698D77
:102310007A8D8B8D9C8D20E030E04AE755E40E9459
:102320001F02DC01CB018D8B9E8BAF8BB88F6D892B
:102330007E898F89988D20E030E040E85FE30E943D
:10234000790388232CF481E090E09C8B8B8B3FC039
:102350006D897E898F89988D20E03FEF4FE757E4A4
:102360000E94190318164CF5698D7A8D8B8D9C8D02
:1023700020E030E040E251E40E941F02DC01CB018A
:10238000BC01CD010E944900DC01CB019C8B8B8BF1
:102390000FC080E991E09A8B898B89899A8901978E
:1023A000F1F79A8B898B8B899C8901979C8B8B8BFE
:1023B0008B899C89009769F714C06D897E898F8904
:1023C000988D0E944900DC01CB019C8B8B8B8B8903
:1023D0009C89988B8F878F8598890197F1F7988BC7
:1023E0008F878CE060E00E94410880E090E0A0EAE6
:1023F000B0E48B879C87AD87BE876B857C858D8598
:102400009E8520E030E04AE755E40E941F02DC018F
:10241000CB018F839887A987BA876F817885898553
:102420009A8520E030E040E85FE30E94790388234A
:102430002CF481E090E09E838D833FC06F8178858E
:1024400089859A8520E03FEF4FE757E40E94190302
:1024500018164CF56B857C858D859E8520E030E0D7
:1024600040E251E40E941F02DC01CB01BC01CD011E
:102470000E944900DC01CB019E838D830FC080E95F
:1024800091E09C838B838B819C810197F1F79C83E6
:102490008B838D819E8101979E838D838D819E810B
:1024A000009769F714C06F81788589859A850E94A5
:1024B0004900DC01CB019E838D838D819E819A83AF
:1024C000898389819A810197F1F79A838983E996B3
:1024D0000FB6F894DEBF0FBECDBFCF91DF91089548
:1024E000DF93CF9300D00F92CDB7DEB79B838A8363
:1024F00019820EC08981282F30E08A819B81FC01DE
:10250000E20FF31F80810E94611089818F5F8983B0
:102510008981282F30E08A819B81FC01E20FF31F23
:102520008081882339F70F900F900F90CF91DF9122
:102530000895DF93CF93CDB7DEB781E00E94A70D5A
:10254000CF91DF910895DF93CF93CDB7DEB760973A
:102550000FB6F894DEBF0FBECDBF6D877E878F8725
:10256000988B8AE0FE013396DF01982F1D929A9591
:10257000E9F71A8219828D859E85AF85B889009703
:10258000A105B10521F480E30E9461106AC08D8528
:102590009E85AF85B889BB230CF043C08DE20E94B5
:1025A00061108D859E85AF85B889B095A095909571
:1025B00081959F4FAF4FBF4F8D879E87AF87B88B59
:1025C00030C08D859E85AF85B8892AE030E040E037
:1025D00050E0BC01CD010E94A216DC01CB01898331
:1025E0008A81282F332727FD3095CE010396FC01E1
:1025F000E20FF31F898180838A818F5F8A838D85B3
:102600009E85AF85B8892AE030E040E050E0BC010B
:10261000CD010E94A216DA01C9018D879E87AF877E
:10262000B88B8D859E85AF85B8890097A105B105CA
:1026300041F68A8181508A8311C08A81282F3327ED
:1026400027FD3095CE010396FC01E20FF31F808138
:10265000805D0E9461108A8181508A838A818823EB
:1026600064F760960FB6F894DEBF0FBECDBFCF9172
:10267000DF910895DF93CF93CDB7DEB727970FB6DD
:10268000F894DEBF0FBECDBF8E836F831A8280E4C5
:102690008B8384E18C8384E58D838E81282F30E0C9
:1026A000CE010296FC01E20FF31F90818F81890F0A
:1026B0008983898180680E94A70D27960FB6F894B8
:1026C000DEBF0FBECDBFCF91DF910895DF93CF93D3
:1026D000CDB7DEB783E261E00E94DE0682E261E010
:1026E0000E94DE0681E261E00E94DE0680E261E097
:1026F0000E94DE068FE262E00E94DE068EE262E069
:102700000E94DE068DE262E00E94DE068BE262E05D
:102710000E94DE0683E261E00E94410882E261E0FD
:102720000E94410881E261E00E94410880E261E08C
:102730000E944108CF91DF910895DF93CF93CDB7E9
:10274000DEB7AC970FB6F894DEBF0FBECDBFAE01BB
:102750004C5E5F4F59A748A78CE990E09BA78AA7DA
:1027600094E19CA7EAA5FBA500804AA55BA54F5F65
:102770005F4F5BA74AA7E8A5F9A5008248A559A520
:102780004F5F5F4F59A748A75CA551505CA78CA528
:10279000882341F781E08B8B1A8A198A188A1F8651
:1027A00083E2898BC1C0898960E00E9441088FE281
:1027B000888BAFC09FE28889E92FE81B8E2F8F8717
:1027C00088898C3209F4A2C088890E94DC098B8B2D
:1027D0008B89882309F09AC080E090E0A0E2B2E4FF
:1027E0008B879C87AD87BE876B857C858D859E8515
:1027F00020E030E04AE755E40E941F02DC01CB01F3
:102800008F839887A987BA876F81788589859A850C
:1028100020E030E040E85FE30E94790388232CF455
:1028200081E090E09E838D833FC06F8178858985AC
:102830009A8520E03FEF4FE757E40E9419031816EE
:102840004CF56B857C858D859E8520E030E040E2EF
:1028500051E40E941F02DC01CB01BC01CD010E94AA
:102860004900DC01CB019E838D830FC080E991E09C
:102870009C838B838B819C810197F1F79C838B8355
:102880008D819E8101979E838D838D819E8100978E
:1028900069F714C06F81788589859A850E944900FF
:1028A000DC01CB019E838D838D819E819A838983F8
:1028B00089819A810197F1F79A83898388890E9497
:1028C000DC09882319F588890E94DC098823D9F35B
:1028D0008989282F30E083E290E0AC01421B530B42
:1028E0009A018F85482F50E0C901880F991F880FE2
:1028F000991F820F931F9E012F5F3F4F820F931FDF
:10290000840F951FFC01739680818A8B8889815082
:10291000888B88898B3208F04DCF898961E00E94CD
:10292000410889898150898B8989803208F03BCFA1
:102930008A89AC960FB6F894DEBF0FBECDBFCF919B
:10294000DF910895DF93CF93CDB7DEB72F970FB602
:10295000F894DEBF0FBECDBF198618861F821E8277
:102960001D820E9466130E94B20F1C821B821A8273
:1029700019820E949D13882F90E09C838B8380E6B0
:1029800090E00E94701263C08B819C81009709F4D3
:102990005EC08B819C818334910561F487E00E9445
:1029A000A70D80E20E94611089819A8101979A8324
:1029B00089831BC08B819C81C097AA2797FDA09516
:1029C000BA2FBC01CD010E94A31229813A818B81CB
:1029D000482F4053CE010A96FC01E20FF31F4083BB
:1029E00089819A8101969A8389838A85682F70E00C
:1029F0008C85282F30E084E690E0289FA001299F55
:102A0000500D389F500D11248B85882F90E09C012C
:102A1000220F331FC901880F991F880F991F820F3A
:102A2000931F840F951FAB01480F591F8D85282FC9
:102A300030E088EE93E0BC01269FC001279F900DF7
:102A4000369F900D1124840F951F9987888789815F
:102A50009A818330910509F097CF81E060E00E9470
:102A60003A138DE690E00E9470128B819C81009752
:102A7000E1F38B818D838B810E94611082E060E0A5
:102A80000E943A1388E790E00E9470121A8219821D
:102A900063C08B819C81009709F45EC08B819C810F
:102AA0008334910561F487E00E94A70D80E20E94C3
:102AB000611089819A8101979A8389831BC08B81D8
:102AC0009C81C097AA2797FDA095BA2FBC01CD0184
:102AD0000E94A31229813A818B81482F4053CE0155
:102AE0000A96FC01E20FF31F408389819A810196C7
:102AF0009A8389838A85682F70E08C85282F30E03F
:102B000084E690E0289FA001299F500D389F500D2A
:102B100011248B85882F90E09C01220F331FC9015F
:102B2000880F991F880F991F820F931F840F951F7D
:102B3000AB01480F591F8D85282F30E088EE93E0B8
:102B4000BC01269FC001279F900D369F900D112438
:102B5000840F951F9F838E8389819A81833091058D
:102B600009F097CF8B819C818D339105D9F782E055
:102B700060E00E943A1386E890E00E9470128D8116
:102B8000282F30E03F872E874E855F854B325105D9
:102B9000B1F06E857F856C32710534F48E859F852A
:102BA0008A32910561F1E5CE2E853F852D323105C2
:102BB000A9F04E855F854F325105B1F1DACE2885F7
:102BC00039858E819F81820F931FAA2797FDA0953B
:102BD000BA2FBC01CD010E94A312CBCE2885398526
:102BE0008E819F81B901681B790BCB01AA2797FDC4
:102BF000A095BA2FBC01CD010E94A312BACE2885A0
:102C000039858E819F81AC01249FC001259F900D45
:102C1000349F900D1124AA2797FDA095BA2FBC01CF
:102C2000CD010E94A312A5CE8E819F81009729F429
:102C30008EE890E00E9470129CCE888599852E8146
:102C40003F81B9010E946D16CB01AA2797FDA0957F
:102C5000BA2FBC01CD010E94A3128BCE629FD0017E
:102C6000739FF001829FE00DF11D649FE00DF11D47
:102C7000929FF00D839FF00D749FF00D659FF00DF6
:102C80009927729FB00DE11DF91F639FB00DE11DE3
:102C9000F91FBD01CF0111240895991B79E004C0EB
:102CA000991F961708F0961B881F7A95C9F780958B
:102CB0000895AA1BBB1B51E107C0AA1FBB1FA61783
:102CC000B70710F0A61BB70B881F991F5A95A9F7D5
:102CD00080959095BC01CD01089597FB092E07269C
:102CE0000AD077FD04D0E5DF06D000201AF47095F5
:102CF00061957F4F0895F6F7909581959F4F0895C0
:102D0000A1E21A2EAA1BBB1BFD010DC0AA1FBB1FEF
:102D1000EE1FFF1FA217B307E407F50720F0A21B61
:102D2000B30BE40BF50B661F771F881F991F1A94CE
:102D300069F760957095809590959B01AC01BD01F8
:102D4000CF01089597FB092E05260ED057FD04D01C
:102D5000D7DF0AD0001C38F4509540953095219566
:102D60003F4F4F4F5F4F0895F6F7909580957095C0
:102D700061957F4F8F4F9F4F08952F923F924F92B3
:102D80005F926F927F928F929F92AF92BF92CF92FB
:102D9000DF92EF92FF920F931F93CF93DF93CDB704
:102DA000DEB7CA1BDB0B0FB6F894DEBF0FBECDBF7C
:102DB00009942A88398848885F846E847D848C844D
:102DC0009B84AA84B984C884DF80EE80FD800C8156
:102DD0001B81AA81B981CE0FD11D0FB6F894DEBF39
:0C2DE0000FBECDBFED010895F894FFCFA9
:102DEC00456E7465722046697273743A006F706533
:102DFC00726174696F6E3A00456E7465722053652A
:102E0C00636F6E643A00526573756C743A00457268
:102E1C00726F72000000000000000000373839307B
:102E2C002F343536302A313233302D43303D302B70
:00000001FF
